:020000040800F2
:10000000FCFF0020C9230000C1230000C123000021
:10001000C1230000C1230000C1230000C123000050
:10002000C1230000C1230000C1230000C123000040
:10003000C1230000C1230000C1230000C123000030
:10004000C1230000C1230000C1230000C123000020
:10005000C1230000C1230000C1230000C123000010
:10006000C1230000C1230000C1230000C123000000
:10007000C1230000C1230000C1230000C1230000F0
:10008000C1230000C1230000C1230000C1230000E0
:10009000C1230000C1230000C1230000C1230000D0
:1000A000C1230000C1230000C1230000C1230000C0
:1000B000C1230000C1230000C1230000C1230000B0
:1000C000C1230000C1230000C1230000C1230000A0
:1000D000C1230000C1230000C1230000C123000090
:1000E000C1230000C1230000C1230000C123000080
:1000F000C1230000C1230000C1230000C123000070
:10010000C1230000C1230000C1230000C12300005F
:10011000C1230000C1230000C1230000C12300004F
:10012000C1230000C1230000C1230000C12300003F
:10013000C1230000C1230000C1230000C12300002F
:10014000C1230000C1230000C1230000C12300001F
:1001500081B000F218010A68C2F3400181F0010188
:10016000C9B2C8B201B0704781B000F214010A6888
:1001700000F218010968090442EA0101084601B0C9
:100180007047010082B0CDF800E0CFB2014698463A
:10019000029B4FF000064FF00005C44CA14207D16E
:1001A000C34CD4F80090C34C2568C34C25600BE0C9
:1001B000C24CA14207D1C24C2068C24C2568BE4C3B
:1001C0002560814600E0A946BF4CC4F80090F4E1E8
:1001D00001F210057C00A4B244F00104A4B22C602A
:1001E000019616464F46019A01F214042568C5F39C
:1001F000400464B9B44C246844B127B90320AE4C20
:100200002468A047E2E1781E0746FFE7ECE70025F7
:100210000C6865F38A240C6001F21404206800BFA6
:1002200001F218042468240440EA04042046012B47
:1002300005D101250C6865F349240C6004E0012513
:100240000C6865F308240C609F4C2568914698461D
:1002500037460E469D49304600F010FA68B99A4C70
:1002600024684CB125B90320934C2468A047ADE124
:100270006C1E20460546FFE7ECE707EB090506F292
:10028000100424682C70B8F1010F13D18E4C216832
:1002900030460568C5F340245CB98B4C24683CB1FA
:1002A00021B90320844C2468A0478FE1491EFFE751
:1002B000EFE712E0844C216830460568C5F300245E
:1002C0005CB9814C24683CB121B903207A4C246884
:1002D000A0477BE1491EFFE7EFE777E101250C68C6
:1002E00065F38A240C6001250C6865F3CB240C604F
:1002F00001F210057C00A4B244F00104A4B22C6009
:100300004F4601F214042568C5F3400464B96E4CED
:10031000246844B127B90320674C2468A04755E1FD
:10032000781E0746FFE7ECE701F21404206800BFDF
:1003300001F2180424682404204300250C6865F3A6
:100340008A240C60604C276801F214042568C5F308
:10035000800464B95C4C246844B127B90320564C2E
:100360002468A04732E1781E0746FFE7ECE7012B3F
:1003700005D101250C6865F349240C6004E00125D2
:100380000C6865F308240C60951901F210042468C8
:100390002C70741C151901F2100424682C70012BA8
:1003A00014D1494C22680D68C5F3402464B9464C09
:1003B000246844B122B903203F4C2468A04705E1DA
:1003C000501E0246FFE7EEE7084613E03E4C226867
:1003D0000D68C5F3002464B93B4C246844B122B9CC
:1003E0000320354C2468A047F0E0501E0246FFE78A
:1003F000EEE708460025046865F3CB240460E5E0D9
:1004000001250C6865F38A240C6001F210057C005C
:10041000A4B244F00104A4B22C604646C846894602
:1004200017461D462A49484600F028F978B9264C57
:1004300024685CB1B8F1000F04D103201E4C24687D
:10044000A047C3E0A8F101008046FFE7EAE70021EA
:10045000A8464A46B1463B46A9F10304A14222D22E
:10046000194C25688A4617461E461849384600F03A
:1004700005F960B9144C246844B125B903200E4C29
:100480002468A047A2E0681E0546FFE7EDE706EBFB
:100490000A0507F2100424682C700AF101042146B1
:1004A00033463A46D8E7084C00F014B800540040F0
:1004B00038000020AC000020A800002000580040B8
:1004C0003C000020B000002040000020400003005D
:1004D00002000300276801930B4616464246019925
:1004E00006F214042568C5F3800464B9394C246805
:1004F00044B127B90320384C2468A04766E0781E31
:100500000746FFE7ECE70025346865F38A2434608A
:10051000CD1806F2100424682C70581C2D4C23684A
:100520001746024606F214042568C5F3800464B930
:10053000284C246844B123B90320274C2468A047E1
:1005400044E0581E0346FFE7ECE7012F07D10125E1
:10055000346865F3492434601046324621E00125B1
:10056000346865F3082434601A4CD4F800801746C8
:100570000D461A49304600F081F878B9154C2468C8
:100580005CB1B8F1000F04D10320134C2468A047DC
:100590001CE0A8F101008046FFE7EAE72946324661
:1005A00038460D1802F2100424682C70441C0D19F2
:1005B00002F2100424682C7008E0B8F1010F3FF437
:1005C00007AEB8F1020F3FF489AE19E7DDF800E09D
:1005D00002B0704740000020A80000200100030086
:1005E00081B0CDF800E04FF000021949884207D1F0
:1005F00018490B6818490A6818490A601C460BE03C
:100600001749884207D117490B6817490A681349E7
:100610000A601C4600E0144614490C600346184664
:10062000FFF796FD70B91149096851B12CB9052041
:100630000A4C2468A047002005E0611E08460446D5
:10064000FFE7ECE70120DDF800E001B0704700BFF4
:100650000054004038000020AC000020A80000201A
:10066000005800403C000020B00000204000002066
:1006700001480068704700BFA400002081B0CDF899
:1006800000E00B46FFF770FD00EA03029A4240F2D9
:10069000000200D10122D0B2DDF800E001B07047C5
:1006A00081B0CDF800E081B2034800F069FEDDF8CA
:1006B00000E001B0704700BF003C004082B0CDF8C0
:1006C00000E0034619460191FFF7D2FF40F2E831FE
:1006D00000FB01F201990A601F490978C1F3031177
:1006E000C8B21E4909180878C0B21A1D1968C1405D
:1006F000116019490988C1F3022188B21749091804
:100700000878C0B203F20802191D0968C1401160DF
:1007100011490988C1F3C22188B210490918087823
:10072000C0B203F20C02191D0968C14011600A49E8
:100730000988C1F3813188B2094909180978C8B21A
:1007400003F2100203F20C010968B1FBF0F1116031
:10075000DDF800E002B07047041002406F2700008F
:10076000BC13000083B0CDF800E000F0FF031A09CD
:10077000104603F00F02134614E0194A02921FE0DC
:10078000184A02921CE0184A029219E0174A029293
:1007900016E0174A029213E0164A029210E0164A37
:1007A00002920DE00028E8D00128E9D00228EAD022
:1007B0000328EBD00428ECD00528EDD00628EED095
:1007C000012212B29A40ADF8042002980A46BDF800
:1007D000041000F0ABFCDDF800E003B0704700BF90
:1007E00000080140000C01400010014000140140CD
:1007F00000180140001C01400020014081B0CDF8EC
:1008000000E081B2034800F0BBFDDDF800E001B07C
:10081000704700BF0038004081B00168C1F340104C
:1008200001B0704781B00168C1F3801001B070471A
:1008300081B00268C2F3401101B9FAE7011D0968ED
:1008400088B201B07047FFFF82B0CDF800E0029E91
:100850004FF00005564CA04206D1564C2768564C26
:100860002568564C25600AE0554CA04206D1554CEF
:100870002768554C2568514C256000E02F46534CA5
:10088000276000F210054C00A4B22C60B946074660
:10089000904635461E464E493846FFF7EFFE88B96A
:1008A0004A4C24686CB1B9F1000F06D10420434CC6
:1008B0002468A0474FF6FF7076E0A9F10100814659
:1008C000FFE7E8E70020019729463746019E7C1E96
:1008D000A04226D206F2100508EB000424782C6012
:1008E0003A4CD4F8009082460D463A493046FFF71C
:1008F000C5FE88B9354C24686CB1B9F1000F06D13A
:1009000004202E4C2468A0474FF6FF704CE0A9F15C
:1009100001008146FFE7E8E70AF101042046294685
:10092000D5E706F2100508EB000424782C60274C6C
:1009300027680D4628493046FFF7A0FE70B9234CC2
:10094000246854B137B904201C4C2468A0474FF6E2
:10095000FF7029E0781E0746FFE7EBE7012D05D180
:100960000125346865F3492434601CE001253468AE
:1009700065F308243460154C276835461749284626
:10098000FFF77CFE78B9114C24685CB137B90420BC
:100990000A4C2468A0474FF6FF7005E07C1E2046F5
:1009A0000746FFE7EAE70020DDF800E002B0704705
:1009B0000054004038000020AC000020A8000020B7
:1009C000005800403C000020B00000204000002003
:1009D0008200070080000700840007000100030078
:1009E00081B0194900EA0101084600220EE0042006
:1009F00022E0082020E010201EE020201CE0402003
:100A00001AE0802018E040F2001015E00F498842FB
:100A1000EDD00F498842ECD00E498842EBD00E4908
:100A20008842EAD00D498842E9D00D498842E8D091
:100A30000C498842E7D010460B49096841EA000298
:100A400009490A6001B0704700FCFFFF000801403F
:100A5000000C01400010014000140140001801404A
:100A6000001C0140002001401810024081B0CDF868
:100A700000E008B413460A46C1B20448FFF782FBFF
:100A800001B0DDF800E001B0704700BF0054004045
:100A900083B0CDF800E003464FF0000026498B42BA
:100AA00006D126490C6826490A6826490A600BE0E7
:100AB00025498B4207D12549086825490A682149FB
:100AC0000A60044600E0044622490C600194029347
:100AD0001846FFF785FD029B019C10B94FF6FF7089
:100AE00025E00122196862F30821196003F214015C
:100AF0000A68C2F3402111B14FF6FF7017E0254696
:100B00001C4615492046FFF7B9FD78B91149096817
:100B100059B135B906200B4C2468A0474FF6FF7039
:100B200005E0691E08460546FFE7EAE70020DDF814
:100B300000E003B0704700BF0054004038000020C0
:100B4000AC000020A8000020005800403C0000201D
:100B5000B0000020400000200100030081B0CDF86B
:100B600000E008B413460A46C1B20448FFF70AFB86
:100B700001B0DDF800E001B0704700BF0058004050
:100B800081B0CDF800E081B2034800F0F9FBDDF858
:100B900000E001B0704700BF0030014081B0CDF8E7
:100BA00000E00348FFF774FFDDF800E001B0704794
:100BB0000054004081B0CDF800E00348FFF738FE54
:100BC000DDF800E001B070470048004081B0CDF88A
:100BD00000E00348FFF726FEDDF800E001B07047B3
:100BE0000044004081B0ADF800100146BDF800009F
:100BF0000B68C3F3C01202B9FAE70A1D106001B016
:100C00007047FFFF81B0CDF800E00348FFF710FE0A
:100C1000DDF800E001B070470044004081B0CDF83D
:100C200000E00348FFF7F8FDDDF800E001B0704791
:100C30000044004081B0CDF800E00348FFF7F2FD2A
:100C4000DDF800E001B07047004C004081B0CDF805
:100C500000E00348FFF7ECFDDDF800E001B070476D
:100C60000050004081B0CDF800E00348FFF7E0FD00
:100C7000DDF800E001B07047004C004081B0CDF8D5
:100C800000E00348FFF7C8FDDDF800E001B0704761
:100C9000004C004081B0CDF800E00348FFF7C2FDF2
:100CA000DDF800E001B070470048004081B0CDF8A9
:100CB00000E00348FFF7B0FDDDF800E001B0704749
:100CC0000048004081B0CDF800E00348FFF7A4FDE4
:100CD000DDF800E001B070470050004081B0CDF871
:100CE00000E00348FFF79EFDDDF800E001B070472B
:100CF0000050004081B0CDF800E00348FFF792FDBE
:100D0000DDF800E001B070470038014084B0CDF854
:100D100000E0ADF80C2001900291BDF80C40BDF848
:100D20000C305B1EADF80C307CB1019B1B78DCB243
:100D3000A0B2084C2468A047029B1870029B5B1C61
:100D40000293019B5B1C0193E7E7DDF800E004B030
:100D5000704700BF9C00002089B0CDF800E08346BA
:100D600098B28C46BDF824100A9E04ACADF804106D
:100D7000ADF808002046FFF7A1FCBDF80800BDF85B
:100D80000410644CA34512D101256DB2624C25605C
:100D9000624D634C2560634D634C2560634D644C2C
:100DA0002560644D644C2560079C039456E0634CB9
:100DB000A34512D101256DB2614C2560614D584C9F
:100DC0002560614D584C2560604D594C2560604D43
:100DD000594C2560069C039440E05E4CA34512D11B
:100DE00001256DB25C4C25605C4D4D4C25605C4D21
:100DF0004D4C25605B4D4E4C25605B4D4E4C256047
:100E0000069C03942AE0594CA34512D101256DB2EA
:100E1000574C2560574D424C2560574D424C25603C
:100E2000564D434C2560564D434C2560069C03941B
:100E300014E0544CA34511D101256DB2524C2560EC
:100E4000524D374C2560524D374C2560514D384C32
:100E50002560514D384C2560069C0394ADF8041074
:100E6000ADF80800304600F0A5F8BDF80800BDF860
:100E700004100BF1100500242C600BF110052C68F8
:100E80000C432C600BF10C0500242C6018B140F4CD
:100E9000806080B2FFE70BF10C052C6804432C60E6
:100EA0000BF10C060125346865F34D3434600BF109
:100EB0000C060125346865F3C30434600BF10C069D
:100EC0000125346865F3820434600BF114050024B5
:100ED0002C60039D192465434FEA8C04B5FBF4F79D
:100EE0006424B7FBF4F42601350964246C433C1BED
:100EF000240104F232056424B5FBF4F404F00F0479
:100F000046EA04040BF10805A4B22C60DDF800E009
:100F100009B070470038014038034242C51600004E
:100F2000BC00002069130000C0000020A5130000D1
:100F3000C4000020F50C0000C80000200044004060
:100F4000C403424271160000050C00001D0C000095
:100F5000CD0B000000480040C803424211160000BB
:100F6000B50B0000AD0C0000950C0000004C0040DB
:100F7000CC034242F5150000650C00007D0C00001A
:100F8000350C000000500040D003424255160000CE
:100F90004D0C0000C50C0000DD0C000081B0CDF848
:100FA00000E00348FFF774FDDDF800E001B0704792
:100FB0000058004081B0CDF800E0012252B23E4915
:100FC0000A6000F268010B686FF0006103EA010239
:100FD000144603F00061C90E0B4602F00041B1F166
:100FE000004F02D135490A6801E035490A6804F426
:100FF0007021090C0E464FF6FF7104EA01010D46FF
:1010000004F44011B1F5401F0DD16FF0706102EA98
:1010100001010E462A490A686FF070610A402849AA
:101020000A60324616E004F48011B1F5801F09D140
:101030004FF00301B140C94302EA010141F0706180
:101040000A4607E0610D090105FA01F1C9430A40AA
:1010500042F070622BB1610D090105FA01F10A43FA
:10106000FFE704F00041B1F1004F02D113490A60DB
:1010700001E013490A6040F2000A81464FEA8A0102
:1010800009EB01010968B1F1FF3F10D009F134010A
:101090004FEA8A03C91809680A4609EB030109687F
:1010A00008461146FFF75EFB0AF1010AE6E7DDF8A4
:1010B00000E001B0704700BF000342421C00014045
:1010C0000400014081B000230360CB009BB242EAE0
:1010D000030304689BB244EA03030360051D131471
:1010E0001C462B6864F382032B6000F21C0500246D
:1010F0002B6864F3CB232B600124036864F386130D
:10110000036001B07047FFFF82B0CDF800E040F20D
:101110000004ADF80440044C2468A047BDF9040065
:10112000DDF800E002B07047A000002081B0CDF8EB
:1011300000E08CB21546774B00EA03031E461846C2
:10114000FFF74EFCB4F1FF0F0CD1734B9D4203D15E
:101150004FF033333360D9E0422D03D14FF04433A5
:101160003360D3E04FF6FF739C4214D16A4B9D422B
:1011700007D14FF033333360341D4FF033332360E6
:10118000C4E0422D07D14FF044333360341D4FF09B
:1011900044332360BAE00021002005F001030BB1C5
:1011A00000211DE005F0020333B105F4C0730BB15B
:1011B000082100E0042113E005F0040333B105F039
:1011C00020030BB1042100E0002109E005F0080331
:1011D00033B105F020030BB10C2100E00821FFE73B
:1011E0004E4B05EA03030BB1032009E005F400733D
:1011F0000BB1022004E005F480630BB10120FFE78E
:1012000005F00C030BB10143FFE704F0FF039BB2B1
:10121000002B3BD0376800201FFA84F832462E4658
:1012200008282CD24FF0010303FA00F408EA040363
:10123000A34222D185004FF00F03AB40DB4307EA06
:10124000030401FA05F344EA03031D4606F481731F
:10125000B3F5817F05D102F214044FF001038340FE
:10126000236006F08203822B05D102F210044FF0B6
:101270000103834023602F46FFE7401CD0E717603F
:101280001FFA88F00F463146164602E00F462946FF
:10129000A0B2B0F1FF0F39D9331DD3F8008000227E
:1012A000082A30D202F208044FF0010303FA04F4D2
:1012B00000EA0403A34224D195004FF00F03AB4092
:1012C000DB4308EA030807FA05F348EA030801F4D8
:1012D0008173B3F5817F07D106F2140502F2080489
:1012E0004FF00103A3402B6001F08203822B07D152
:1012F00006F2100502F208044FF00103A3402B6030
:10130000FFE7521CCCE7331DC3F80080DDF800E096
:1013100001B0704700FCFFFF14000800000808003F
:1013200081B0CDF800E008B413460A46C1B20448C3
:10133000FFF78AFA01B0DDF800E001B0704700BFA6
:101340000058004081B0CDF800E008B413460A46CA
:10135000C1B20448FFF778FA01B0DDF800E001B04F
:10136000704700BF0054004081B0CDF800E0034852
:10137000FFF75EFADDF800E001B070470038014089
:1013800081B000F20C02116000F208021368C3F38E
:10139000000202B9F8E700F20C02126890B201B044
:1013A0007047FFFF81B0CDF800E00348FFF734FA43
:1013B000DDF800E001B07047003801400204060883
:1013C00044F67F77C0F212077F1EFDD100BF00BF39
:1013D00000BF00BF00BF704782B0CDF800E040F210
:1013E0000004ADF80440064C2468A047BDF9041081
:1013F00041EA000000B2DDF800E002B0704700BF33
:101400008400002081B0CDF800E0019D2C4610B48E
:1014100008B493B28AB201460348FFF79DFC02B0BC
:10142000DDF800E001B070470044004081B0CDF825
:1014300000E0019D2C4610B408B493B28AB2014674
:101440000348FFF789FC02B0DDF800E001B0704707
:101450000048004081B0CDF800E0019D2C4610B45A
:1014600008B493B28AB201460348FFF775FC02B094
:10147000DDF800E001B070470038014083B0CDF8DE
:1014800000E08AB2014690B283B2421E90B26BB1C4
:101490000A78D4B2ADF804000291A0B2054C2468D9
:1014A000A0470299BDF80400491CEDE7DDF800E013
:1014B00003B070478C00002081B0CDF800E0044AF2
:1014C00089B2FFF733FEDDF800E001B0704700BFDE
:1014D0001400080081B0CDF800E04FF0420289B25C
:1014E000FFF724FEDDF800E001B0704782B0CDF8D0
:1014F00000E000218DF8061000218DF807101E492C
:10150000097801291AD10DF106010870FFF764FF6F
:101510000DF10602194909780023C8B211460122CB
:1015200000F084F800F03CF901AA1449097801237D
:10153000C8B211460122FFF7E7FD14E00DF10602E3
:1015400040F08001117000200D4C2468A04701AAD2
:101550000DF10601084611460222FFF7D7FB0120D4
:10156000074C2468A04701A9491C0978C8B2DDF8D6
:1015700000E002B0704700BF330000207A00002076
:101580008000002083B0CDF800E08DF804000291C7
:101590000B4C0C4B1C600C4C0C4B1C60012464B2BB
:1015A0000B4B1C601046FFF705FD029A9DF80410D6
:1015B0000848FFF787FDDDF800E003B0704700BF83
:1015C000A1060000B40000208D160000B800002025
:1015D000BC034242003C004081B0CDF800E081B243
:1015E0000348FFF7CDFEDDF800E001B0704700BF13
:1015F0000030014081B0CDF800E081B20348FFF730
:10160000F1FADDF800E001B0704700BF004C004087
:1016100081B0CDF800E081B20348FFF7E3FADDF8CE
:1016200000E001B0704700BF0048004082B0CDF834
:1016300000E040F20004ADF80440054C2468A047E7
:10164000BDF90440044320B2DDF800E002B0704769
:101650008800002081B0CDF800E081B20348FFF798
:10166000C1FADDF800E001B0704700BF0050004053
:1016700081B0CDF800E081B20348FFF7B3FADDF89E
:1016800000E001B0704700BF0044004081B0CDF8D9
:1016900000E081B20348FFF773FEDDF800E001B01F
:1016A000704700BF003C004081B0CDF800E081B23F
:1016B0000348FFF765FEDDF800E001B0704700BFAA
:1016C0000038004081B0CDF800E081B20348FFF758
:1016D00089FADDF800E001B0704700BF0038014032
:1016E00082B0CDF800E001AA1070521C1170104AAF
:1016F0001278012A0BD1FFF76FFE01AB0D4A127869
:1017000019460123D0B20222FFF790FF0CE000201F
:10171000094C2468A04701AA02211046FFF7AEFE3B
:101720000120054C2468A047DDF800E002B07047B6
:10173000330000207A0000208000002081B00A469B
:10174000014600200D4611460A2805D20B1820221A
:101750001A70401C80B2F7E70B1800221A70401E66
:1017600080B20C180A23B5FBF3F203FB125230329D
:1017700022700A22B5FBF2F2154602B902E0401EC1
:1017800080B2EEE701B0704781B0CDF800E01B21D8
:101790000F20FFF7A5FFDDF800E001B07047FFFF65
:1017A0004DF2BF47C0F201077F1EFDD100BF00BF51
:1017B00000BF00BF00BF704784B0CDF800E00190CB
:1017C000029103920F210A20FFF78AFFFFF7E8FF3B
:1017D0001020FFF78BFE019B18701120FFF786FE8B
:1017E000029B18701220FFF781FE039B18700021E6
:1017F0000A20FFF775FFFFF7D3FFDDF800E004B024
:101800007047FFFF81B0CDF800E00020074C24684E
:10181000A047FFF7D5FD0120044C2468A047FFF73F
:10182000CFFDDDF800E001B0704700BF9800002058
:1018300001490860704700BFB48122420149086035
:10184000704700BFA801224201490860704700BFED
:101850009001214201490860704700BF880122427F
:1018600001490860704700BFAC012242014908608D
:10187000704700BFA881224201490860704700BF3D
:10188000A481224201490860704700BFB001224292
:1018900001490860704700BF8001214281B0CDF846
:1018A00000E0011D0A680168C8B21146034AFFF74B
:1018B00069FE0020DDF800E001B0704770260000EE
:1018C00081B0CDF800E0011D0A680168C8B2114678
:1018D000034AFFF757FE0020DDF800E001B0704733
:1018E0007026000081B0CDF800E0A9E0012905D103
:1018F00040F210016548FFF7EDFD04E040F21001F1
:101900006248FFF7D9FDBBE0012905D140F204018F
:101910005F48FFF7DFFD04E040F204015C48FFF799
:10192000CBFDADE0012905D142F200015948FFF796
:10193000D1FD04E042F200015648FFF7BDFD9FE0F3
:10194000012905D140F200415148FFF7C3FD04E0F1
:1019500040F200414E48FFF7AFFD91E0012905D16B
:1019600040F600014A48FFF7B5FD04E040F60001EB
:101970004748FFF7A1FD83E0012905D141F20001AD
:101980004348FFF7A7FD04E041F200014048FFF79C
:1019900093FD75E0012905D140F201013B48FFF7B5
:1019A00099FD04E040F201013848FFF785FD67E04A
:1019B000012905D140F200413648FFF78BFD04E0D4
:1019C00040F200413348FFF777FD59E0012905D186
:1019D00040F200212F48FFF77DFD04E040F2002196
:1019E0002C48FFF769FD4BE0012905D140F20011B9
:1019F0002848FFF76FFD04E040F200112548FFF78B
:101A00005BFD3DE0012905D140F240012248FFF78E
:101A100061FD04E040F240011F48FFF74DFD2FE05B
:101A2000012905D140F280011B48FFF753FD04E076
:101A300040F280011848FFF73FFD21E0012020E03F
:101A400000283FF453AF01283FF45EAF02283FF473
:101A500069AF03283FF474AF04283FF47FAF052833
:101A60003FF48AAF06283FF495AF0728A0D0082896
:101A7000ACD00928B8D00A28C4D00B28D0D0DDE7D4
:101A80000020DDF800E001B0704700BF0008014011
:101A90000010014000140140000C014081B0CDF85D
:101AA00000E0A9E0012905D140F220016548FFF7D7
:101AB00011FD04E040F220016248FFF7FDFCBBE0AD
:101AC000012905D140F208015F48FFF703FD04E05A
:101AD00040F208015C48FFF7EFFCADE0012905D1B9
:101AE00044F200015948FFF7F5FC04E044F200011C
:101AF0005648FFF7E1FC9FE0012905D140F2004183
:101B00005148FFF7E7FC04E040F200414E48FFF780
:101B1000D3FC91E0012905D140F600014A48FFF7C6
:101B2000D9FC04E040F600014748FFF7C5FC83E01C
:101B3000012905D141F200014348FFF7CBFC04E045
:101B400041F200014048FFF7B7FC75E0012905D1DB
:101B500041F200013D48FFF7BDFC04E041F2000105
:101B60003A48FFF7A9FC67E0012905D140F60001DA
:101B70003648FFF7AFFC04E040F600013348FFF7BA
:101B80009BFC59E0012905D140F240012F48FFF7A5
:101B9000A1FC04E040F240012C48FFF78DFC4BE033
:101BA000012905D140F220012848FFF793FC04E009
:101BB00040F220012548FFF77FFC3DE0012905D1D7
:101BC00040F240012248FFF785FC04E040F240016A
:101BD0001F48FFF771FC2FE0012905D140F2800179
:101BE0001B48FFF777FC04E040F280011848FFF73C
:101BF00063FC21E0012020E000283FF453AF0128DE
:101C00003FF45EAF02283FF469AF03283FF474AF9E
:101C100004283FF47FAF05283FF48AAF06283FF43D
:101C200095AF0728A0D00828ACD00928B8D00A283A
:101C3000C4D00B28D0D0DDE70020DDF800E001B0F3
:101C4000704700BF0008014000100140001401402F
:101C5000000C014081B0CDF800E0094902B440F227
:101C6000000340F2000240F20001FFF7DFFB01B089
:101C7000044A05490A600020DDF800E001B0704721
:101C800098250000111600007C00002081B0CDF8DE
:101C900000E0094902B440F2000340F2000240F2C1
:101CA0000001FFF7AFFB01B0044A05490A600020BC
:101CB000DDF800E001B07047042600007116000056
:101CC0007C00002081B0CDF800E00178CCB2A0B259
:101CD000034C2468A0470020DDF800E001B0704705
:101CE0007C00002081B0CDF800E0094902B440F248
:101CF000000340F2000240F20001FFF783FB01B055
:101D0000044A05490A600020DDF800E001B0704790
:101D100004260000711600007C00002081B0CDF880
:101D200000E0094902B440F2000340F2000240F230
:101D30000001FFF78FFB01B0044A05490A6000204B
:101D4000DDF800E001B070472C250000C51600004A
:101D50007C00002001490860704700BF9881224242
:101D600001490860704700BF948122420149086020
:101D7000704700BFB081224201490860704700BF30
:101D8000B0812242026803490A60011D0A680249C3
:101D90000A6070478C0000209C00002000F2300197
:101DA0001C310A6807490A60026807490A6000F2A4
:101DB00008010A6805490A60011D0A6804490A60A9
:101DC000704700BF90000020940000208000002099
:101DD0009800002001490860704700BF98812142A7
:101DE00001490860704700BF9C8121420149086099
:101DF000704700BFB001224201490860704700BF30
:101E00009401214201490860704700BF8C012242C1
:101E100001490860704700BF9C8121420149086068
:101E2000704700BFA081224201490860704700BF8F
:101E30009881214201490860704700BFB881224261
:101E400001490860704700BFAC01224201490860A7
:101E5000704700BFA801224281B0CDF800E05FFAD0
:101E600081F95FFA82FA0FE05FFA8AF15FFA89F08E
:101E7000FFF738FD0DE05FFA8AF15FFA89F0FFF7AE
:101E80000DFE06E0012004E00028EDD00128F2D08C
:101E9000F8E7DDF800E001B07047FFFF81B0CDF852
:101EA00000E00E4600210346002804DA01214042EA
:101EB00000468FB201E018468FB23146FFF73EFC74
:101EC0000B213446B8B2002908D963184A1E92B2D1
:101ED000A21812781A70491E89B2F4E720222270E3
:101EE00070B1002081B2204642181278202A02D117
:101EF000491C89B2F8E74A1E92B283182D221A7043
:101F0000DDF800E001B0704783B0CDF800E08DF857
:101F100004000F210A20FFF7E3FB9DF80400FFF700
:101F20003FFC50B90320FFF7E1FA8DF808000420C8
:101F3000FFF7DCFA8DF8090016E001280AD1052028
:101F4000FFF7D4FA8DF808000620FFF7CFFA8DF8D6
:101F5000090009E00720FFF7C9FA8DF808000820FA
:101F6000FFF7C4FA8DF8090000210A20FFF7B8FB3B
:101F7000FFF716FC9DF80900020212B29DF8081046
:101F800042EA010108B2DDF800E003B07047FFFF4C
:101F900081B0CDF800E0094A118801F0F00189B262
:101FA000118001431180C9B20A20FFF799FBFFF7A6
:101FB000F7FBDDF800E001B0704700BF34000020FF
:101FC00081B0CDF800E00549088009880A20FFF7B4
:101FD00087FBDDF800E001B0704700BF340000204F
:101FE00081B0CDF800E0FFF70DFCFFF7D9FB054805
:101FF0000088FFF7E5FF0620FFF7CAFFDDF800E0E5
:1020000001B070473400002081B0CDF800E00346F5
:102010000846FFF7B7FE1846FFF7C0FE0023054A43
:1020200013700120044C2468A047DDF800E001B0E3
:10203000704700BF330000208000002081B0CDF841
:1020400000E011E00846FFF705FE16E00846FFF73E
:1020500049FE12E00846FFF761FE0EE00846FFF772
:1020600015FE0AE0012008E00028EBD00128EDD0A1
:102070002028EFD03028F1D0F4E7DDF800E001B0FF
:102080007047FFFF83B0CDF800E0024610460D22F6
:102090008DF808200A228DF809201FE0FFF712FEB4
:1020A00023E002782AB10190FFF70CFE0198401C52
:1020B000F7E71AE002782AB10190FFF703FE0198D2
:1020C000401CF7E702AA1046FFF7FCFD0DF10902DC
:1020D0001046FFF7F7FD08E0062007E00029DDD0F5
:1020E0000129DED00229E5D0F6E70020DDF800E086
:1020F00003B0704781B0CDF800E08B4609E0584648
:10210000FFF7CCFB0AE05846FFF7DAFB06E00120B8
:1021100004E00028F3D00128F5D0F8E7DDF800E06E
:1021200001B0704781B0CDF800E0FFF76BFBFFF71F
:1021300047F900210A20FFF7D3FAFFF731FB074ADE
:1021400007490848FFF738FB0748007808B9FFF748
:102150001BFBDDF800E001B0704700BF320000203B
:10216000310000203000002033000020FFFFFFFF7F
:1021700081B0CDF800E00D490D48FFF745FFFFF7AE
:10218000D1FF4EF67F67C0F236077F1EFDD100BF3C
:1021900000BF00BF00BF00BF1020FFF711FF0620E7
:1021A000FFF7F6FEDDF800E001B070478C27000075
:1021B000DC26000081B01548006840F0010113489A
:1021C000016013491348016010480168124801403A
:1021D0000E4801600D4801686FF4802001400B48F3
:1021E00001600C4801686FF4FE000140094801607D
:1021F000064801686FF0A0500140044801604FF0AC
:1022000000010648016001B0704700BF00100240A5
:102210000000FFF004100240FFFFF6FE2C10024009
:1022200081B04FF000094FF0000CBDEB0A0F04DC49
:10223000BDEB0B0F01DBD446EA464BF8049BBBEB2E
:102240000A0FFAD1BCEB0A0F05DDE246D9F800B05F
:102250000BF1040BF1E701B07047FFFFFFFFFFFF39
:1022600081B0CDF800E0012207210020FFF7F4FD46
:10227000002201210020FFF7EFFD002202210020B3
:10228000FFF7EAFD0E4801460020FFF733FF42F258
:1022900080512020FFF7D2FE0A480221FFF7F2FE0C
:1022A00044F67F77C0F212077F1EFDD100BF00BF4A
:1022B00000BF00BF00BFDDF800E001B0704700BF05
:1022C000942700000000002081B0CDF800E0FFF767
:1022D00087FE28480221FFF7D5FE0020FFF714FEF5
:1022E000254908800120FFF70FFE244908800220BD
:1022F000FFF70AFE224908801F48B0F90000214973
:10230000FFF7CCFD20480121FFF7BCFE02211D484C
:10231000FFF7B8FE1948B0F900001A49FFF7BEFDF3
:102320001A480121FFF7AEFE02211648FFF7AAFE68
:102330001348B0F900001349FFF7B0FD144801211C
:10234000FFF7A0FE02210F48FFF79CFE1148022173
:10235000FFF798FE41F6FF27C0F2B70700BF00BFA6
:102360007F1EFDD100BF00BF00BFDDF800E001B05F
:10237000704700BF140000203600002044000020F9
:1023800046000020480000202200002026000020F7
:102390002A0000202E00002081B01CF8019B0BF8C1
:1023A000019BBBEB0A0FF8D101B0704781B0024925
:1023B0000248016001B0704740190100A4000020EC
:1023C00081B0FEE701B0704700F00EF800F042FA6D
:1023D000FFF7ECFF00F0E2F9FFF742FFFFF7C8FE5E
:1023E000FFF772FFFCE7FEE781B0CDF800E0464A58
:1023F000464B474C47494BF68030814206D9464808
:10240000006840F002014448016011E045F6C05008
:10241000814206D94048006840F001013E48016011
:1024200006E03D4801686FF0070001403A4801604E
:10243000FFF7C0FE3948036039480460394802EAB2
:1024400000013948016002F0010040B119463648E8
:10245000006800F00200002800D1F8E700E019460B
:1024600002F4803040B10B462F48006800F4003081
:10247000002800D1F8E700E00B4602F0805068B178
:102480002948006840F080512748016026480068CC
:1024900000F00050002800D1F8E7FFE702F080606C
:1024A00078B12148006840F080611F480160114602
:1024B0001A461D48006800F00060002800D1F8E7C7
:1024C00001E011461A4601F0807070B116480068AC
:1024D00040F080711448016011461348006800F014
:1024E000007000B9F9E70A46FFE70C48006800F001
:1024F0000C01900000F00C00814200D0F5E7DDF8FF
:1025000000E001B0704700BF8100010502841D009A
:10251000440601004019010000200240041002405E
:102520002C100240FFFF0F000010024009000000C5
:102530000A000000FFFFFFFF000000000000000095
:10254000000000000000000000000000000000008B
:10255000000000000000000000000000000000007B
:102560001808000018000000000000000000000033
:10257000000000000000000000000000000000005B
:10258000000000000000000000000000000000004B
:1025900000000000040000003800000039000000C6
:1025A000FFFFFFFF0000000000000000000000002F
:1025B000000000000000000000000000000000001B
:1025C00000000000000000000000000018080000EB
:1025D00018000000000000000000000000000000E3
:1025E00000000000000000000000000000000000EB
:1025F00000000000000000000000000000000000DB
:10260000300014083500000036000000FFFFFFFF17
:1026100000000000000000000000000000000000BA
:1026200000000000000000000000000000000000AA
:102630000000000000000000180800001800000062
:10264000000000000000000000000000000000008A
:10265000000000000000000000000000000000007A
:10266000000000000000000000000000080000085A
:102670002A0000002B0000002C000000FFFFFFFFDD
:10268000000000000000000000000000000000004A
:10269000000000000000000000000000000000003A
:1026A00000000000180800001808000018080000CA
:1026B000000000000000000000000000000000001A
:1026C000000000000000000000000000000000000A
:1026D0000000000000000000001120084918000060
:1026E00055180000311800003D1800006118000066
:1026F00085180000911800006D180000791800007E
:102700001D1E0000291E0000111E0000FFFFFFFF1C
:10271000FFFFFFFFFFFFFFFFFFFFFFFFFFFFFFFFC9
:10272000FFFFFFFFFFFFFFFFFFFFFFFFFFFFFFFFB9
:10273000FFFFFFFFFFFFFFFFFFFFFFFF2D2D2D20FE
:1027400053797374656D20496E6974202D2D2D00A9
:10275000202D2D2D2041786973202D2D2D00583AE4
:102760002000593A20005A3A2000200000000000C2
:10277000000000010203040102030406070809FF28
:102780000000000000000000000000008D160000A6
:10279000A1060000070000000403000000B5DFF8F8
:1027A00034B0DFF834A0DFF834C0FFF7F5FDDFF810
:1027B00030B0DFF830A0DFF830C0FFF7EDFDDFF814
:1027C0002CB0DFF82CA0DFF82CC0FFF7E5FD00BD32
:1027D000704700BF00000020330000203C270000AD
:1027E0003400002036000020820100003800002064
:1027F0004400002080270000FFFFFFFFFFFFFFFFD6
:10280000FFFFFFFFFFFFFFFFFFFFFFFFFFFFFFFFD8
:10281000FFFFFFFFFFFFFFFFFFFFFFFFFFFFFFFFC8
:10282000FFFFFFFFFFFFFFFFFFFFFFFFFFFFFFFFB8
:10283000FFFFFFFFFFFFFFFFFFFFFFFFFFFFFFFFA8
:10284000FFFFFFFFFFFFFFFFFFFFFFFFFFFFFFFF98
:10285000FFFFFFFF00B5DFF810B0DFF810A0FFF7B3
:10286000DFFC00BD704700BF00000020CC0000204E
:00000001FF
